:1000000009C021C020C020C01EC01DC01CC01BC014
:100010001AC019C011241FBECFE9CDBF10E0A0E661
:10002000B0E0E0EFF1E002C005900D92A236B1071A
:10003000D9F710E0A2E6B0E001C01D92A436B107E6
:10004000E1F7A2D0D3C0DCCF1F920F920FB60F9270
:1000500011242F933F935F936F937F938F939F937D
:10006000AF93BF938091620090916300019690934B
:10007000630080936200809162009091630026E1AA
:1000800030E0B9018CD08130910549F08091620057
:1000900090916300B90183D08530910521F488B334
:1000A00091E0892788BB809162009091630025E0F0
:1000B00030E0B90174D08130910549F0809162003F
:1000C00090916300B9016BD08230910521F488B31F
:1000D00098E0892788BB80916200909163002CE2B0
:1000E00030E0B9015CD08130910551F4809160001D
:1000F00090916100019690936100809360000DC023
:100100008091620090916300B90149D08B329105D2
:1001100021F410926300109262008091600090912F
:10012000610025E08D3D92070CF180916200909175
:1001300063002CE230E0B90132D08130910529F41E
:1001400088B392E0892788BB11C0809162009091AA
:100150006300B90124D08731910541F488B392E05E
:10016000892788BB1092610010926000BF91AF9107
:100170009F918F917F916F915F913F912F910F9000
:100180000FBE0F901F90189583B7856083BF89B706
:10019000826089BF7894BB9AB89AB99AFFCF97FBCF
:1001A000092E07260AD077FD04D00CD006D00020F7
:1001B0001AF4709561957F4F0895F6F790958195A3
:1001C0009F4F0895AA1BBB1B51E107C0AA1FBB1F6D
:1001D000A617B70710F0A61BB70B881F991F5A95D3
:1001E000A9F780959095BC01CD010895F894FFCFB3
:0201F000DD052B
:00000001FF
